{
  "contractName": "CrowdsaleContract",
  "abi": [
    {
      "constant": true,
      "inputs": [
        {
          "name": "beneficiary",
          "type": "address"
        }
      ],
      "name": "getContribution",
      "outputs": [
        {
          "name": "",
          "type": "uint256"
        }
      ],
      "payable": false,
      "stateMutability": "view",
      "type": "function"
    },
    {
      "constant": true,
      "inputs": [],
      "name": "rate",
      "outputs": [
        {
          "name": "",
          "type": "uint256"
        }
      ],
      "payable": false,
      "stateMutability": "view",
      "type": "function"
    },
    {
      "constant": true,
      "inputs": [],
      "name": "cap",
      "outputs": [
        {
          "name": "",
          "type": "uint256"
        }
      ],
      "payable": false,
      "stateMutability": "view",
      "type": "function"
    },
    {
      "constant": true,
      "inputs": [
        {
          "name": "account",
          "type": "address"
        }
      ],
      "name": "isCapper",
      "outputs": [
        {
          "name": "",
          "type": "bool"
        }
      ],
      "payable": false,
      "stateMutability": "view",
      "type": "function"
    },
    {
      "constant": true,
      "inputs": [],
      "name": "weiRaised",
      "outputs": [
        {
          "name": "",
          "type": "uint256"
        }
      ],
      "payable": false,
      "stateMutability": "view",
      "type": "function"
    },
    {
      "constant": true,
      "inputs": [
        {
          "name": "",
          "type": "address"
        }
      ],
      "name": "contributions",
      "outputs": [
        {
          "name": "",
          "type": "uint256"
        }
      ],
      "payable": false,
      "stateMutability": "view",
      "type": "function"
    },
    {
      "constant": true,
      "inputs": [],
      "name": "capReached",
      "outputs": [
        {
          "name": "",
          "type": "bool"
        }
      ],
      "payable": false,
      "stateMutability": "view",
      "type": "function"
    },
    {
      "constant": true,
      "inputs": [],
      "name": "wallet",
      "outputs": [
        {
          "name": "",
          "type": "address"
        }
      ],
      "payable": false,
      "stateMutability": "view",
      "type": "function"
    },
    {
      "constant": false,
      "inputs": [],
      "name": "renounceCapper",
      "outputs": [],
      "payable": false,
      "stateMutability": "nonpayable",
      "type": "function"
    },
    {
      "constant": false,
      "inputs": [
        {
          "name": "beneficiary",
          "type": "address"
        },
        {
          "name": "cap",
          "type": "uint256"
        }
      ],
      "name": "setCap",
      "outputs": [],
      "payable": false,
      "stateMutability": "nonpayable",
      "type": "function"
    },
    {
      "constant": false,
      "inputs": [
        {
          "name": "account",
          "type": "address"
        }
      ],
      "name": "addCapper",
      "outputs": [],
      "payable": false,
      "stateMutability": "nonpayable",
      "type": "function"
    },
    {
      "constant": true,
      "inputs": [
        {
          "name": "beneficiary",
          "type": "address"
        }
      ],
      "name": "getCap",
      "outputs": [
        {
          "name": "",
          "type": "uint256"
        }
      ],
      "payable": false,
      "stateMutability": "view",
      "type": "function"
    },
    {
      "constant": false,
      "inputs": [
        {
          "name": "beneficiary",
          "type": "address"
        }
      ],
      "name": "buyTokens",
      "outputs": [],
      "payable": true,
      "stateMutability": "payable",
      "type": "function"
    },
    {
      "constant": true,
      "inputs": [],
      "name": "token",
      "outputs": [
        {
          "name": "",
          "type": "address"
        }
      ],
      "payable": false,
      "stateMutability": "view",
      "type": "function"
    },
    {
      "inputs": [
        {
          "name": "rate",
          "type": "uint256"
        },
        {
          "name": "wallet",
          "type": "address"
        },
        {
          "name": "token",
          "type": "address"
        },
        {
          "name": "cap",
          "type": "uint256"
        }
      ],
      "payable": false,
      "stateMutability": "nonpayable",
      "type": "constructor"
    },
    {
      "payable": true,
      "stateMutability": "payable",
      "type": "fallback"
    },
    {
      "anonymous": false,
      "inputs": [
        {
          "indexed": true,
          "name": "account",
          "type": "address"
        }
      ],
      "name": "CapperAdded",
      "type": "event"
    },
    {
      "anonymous": false,
      "inputs": [
        {
          "indexed": true,
          "name": "account",
          "type": "address"
        }
      ],
      "name": "CapperRemoved",
      "type": "event"
    },
    {
      "anonymous": false,
      "inputs": [
        {
          "indexed": true,
          "name": "purchaser",
          "type": "address"
        },
        {
          "indexed": true,
          "name": "beneficiary",
          "type": "address"
        },
        {
          "indexed": false,
          "name": "value",
          "type": "uint256"
        },
        {
          "indexed": false,
          "name": "amount",
          "type": "uint256"
        }
      ],
      "name": "TokensPurchased",
      "type": "event"
    }
  ],
  "bytecode": "0x60806040523480156200001157600080fd5b5060405160808062001237833981018060405260808110156200003357600080fd5b508051602082015160408301516060909301516001600055919290918084848482620000c057604080517f08c379a000000000000000000000000000000000000000000000000000000000815260206004820152601460248201527f43726f776473616c653a20726174652069732030000000000000000000000000604482015290519081900360640190fd5b6001600160a01b03821662000121576040517f08c379a0000000000000000000000000000000000000000000000000000000008152600401808060200182810382526025815260200180620012126025913960400191505060405180910390fd5b6001600160a01b03811662000182576040517f08c379a0000000000000000000000000000000000000000000000000000000008152600401808060200182810382526024815260200180620011cc6024913960400191505060405180910390fd5b600392909255600280546001600160a01b039283166001600160a01b03199182161790915560018054929093169116179055806200022157604080517f08c379a000000000000000000000000000000000000000000000000000000000815260206004820152601960248201527f43617070656443726f776473616c653a20636170206973203000000000000000604482015290519081900360640190fd5b600555620002363362000240602090811b901c565b50505050620003b9565b6200025b8160066200029260201b620009701790919060201c565b6040516001600160a01b038216907fa7555c95b69d4f5cc847881feb4ab2883a1921319e34fa2043747b793d65b36e90600090a250565b620002a482826200033660201b60201c565b156200031157604080517f08c379a000000000000000000000000000000000000000000000000000000000815260206004820152601f60248201527f526f6c65733a206163636f756e7420616c72656164792068617320726f6c6500604482015290519081900360640190fd5b6001600160a01b0316600090815260209190915260409020805460ff19166001179055565b60006001600160a01b03821662000399576040517f08c379a0000000000000000000000000000000000000000000000000000000008152600401808060200182810382526022815260200180620011f06022913960400191505060405180910390fd5b506001600160a01b03166000908152602091909152604090205460ff1690565b610e0380620003c96000396000f3fe6080604052600436106100dd5760003560e01c8063521eb2731161007f5780638dfbcf36116100595780638dfbcf361461027a578063b3aefb75146102ad578063ec8ac4d8146102e0578063fc0c546a14610306576100dd565b8063521eb273146101fb5780635d5576f81461022c57806380ad2cf314610241576100dd565b806339564561116100bb57806339564561146101575780634042b66f1461019e57806342e94c90146101b35780634f935945146101e6576100dd565b806321eff7fc146100e85780632c4e722e1461012d578063355274ea14610142575b6100e63361031b565b005b3480156100f457600080fd5b5061011b6004803603602081101561010b57600080fd5b50356001600160a01b0316610422565b60408051918252519081900360200190f35b34801561013957600080fd5b5061011b61043d565b34801561014e57600080fd5b5061011b610443565b34801561016357600080fd5b5061018a6004803603602081101561017a57600080fd5b50356001600160a01b0316610449565b604080519115158252519081900360200190f35b3480156101aa57600080fd5b5061011b610462565b3480156101bf57600080fd5b5061011b600480360360208110156101d657600080fd5b50356001600160a01b0316610468565b3480156101f257600080fd5b5061018a61047a565b34801561020757600080fd5b5061021061048e565b604080516001600160a01b039092168252519081900360200190f35b34801561023857600080fd5b506100e661049d565b34801561024d57600080fd5b506100e66004803603604081101561026457600080fd5b506001600160a01b0381351690602001356104a8565b34801561028657600080fd5b506100e66004803603602081101561029d57600080fd5b50356001600160a01b031661050b565b3480156102b957600080fd5b5061011b600480360360208110156102d057600080fd5b50356001600160a01b031661055e565b6100e6600480360360208110156102f657600080fd5b50356001600160a01b031661031b565b34801561031257600080fd5b50610210610579565b6000805460010190819055346103318382610588565b600061033c82610607565b600454909150610352908363ffffffff61061e16565b60045561035f8482610682565b604080518381526020810183905281516001600160a01b0387169233927f6faf93231a456e552dbc9961f58d9713ee4f2e69d15f1975b050ef0911053a7b929081900390910190a36103b1848361068c565b6103b96106df565b6103c3848361041e565b5050600054811461041e5760408051600160e51b62461bcd02815260206004820152601f60248201527f5265656e7472616e637947756172643a207265656e7472616e742063616c6c00604482015290519081900360640190fd5b5050565b6001600160a01b031660009081526007602052604090205490565b60035490565b60055490565b600061045c60068363ffffffff61071816565b92915050565b60045490565b60096020526000908152604090205481565b6000600554610487610462565b1015905090565b6002546001600160a01b031690565b6104a633610782565b565b6104b133610449565b6104ef57604051600160e51b62461bcd028152600401808060200182810382526030815260200180610da86030913960400191505060405180910390fd5b6001600160a01b03909116600090815260086020526040902055565b61051433610449565b61055257604051600160e51b62461bcd028152600401808060200182810382526030815260200180610da86030913960400191505060405180910390fd5b61055b816107ca565b50565b6001600160a01b031660009081526008602052604090205490565b6001546001600160a01b031690565b6105928282610812565b6001600160a01b0382166000908152600860209081526040808320546007909252909120546105c7908363ffffffff61061e16565b111561041e57604051600160e51b62461bcd028152600401808060200182810382526037815260200180610d476037913960400191505060405180910390fd5b600061045c6003548361088d90919063ffffffff16565b60008282018381101561067b5760408051600160e51b62461bcd02815260206004820152601b60248201527f536166654d6174683a206164646974696f6e206f766572666c6f770000000000604482015290519081900360640190fd5b9392505050565b61041e82826108e9565b610696828261041e565b6001600160a01b0382166000908152600760205260409020546106bf908263ffffffff61061e16565b6001600160a01b0390921660009081526007602052604090209190915550565b6002546040516001600160a01b03909116903480156108fc02916000818181858888f1935050505015801561055b573d6000803e3d6000fd5b60006001600160a01b03821661076257604051600160e51b62461bcd028152600401808060200182810382526022815260200180610cfb6022913960400191505060405180910390fd5b506001600160a01b03166000908152602091909152604090205460ff1690565b61079360068263ffffffff61090616565b6040516001600160a01b038216907f427400d279c506df610224b22ecce89b693fc1865864113f21c8d19c1f0c2a3b90600090a250565b6107db60068263ffffffff61097016565b6040516001600160a01b038216907fa7555c95b69d4f5cc847881feb4ab2883a1921319e34fa2043747b793d65b36e90600090a250565b61081c82826109f4565b6005546108378261082b610462565b9063ffffffff61061e16565b111561041e5760408051600160e51b62461bcd02815260206004820152601d60248201527f43617070656443726f776473616c653a20636170206578636565646564000000604482015290519081900360640190fd5b60008261089c5750600061045c565b828202828482816108a957fe5b041461067b57604051600160e51b62461bcd028152600401808060200182810382526021815260200180610cda6021913960400191505060405180910390fd5b60015461041e906001600160a01b0316838363ffffffff610a9116565b6109108282610718565b61094e57604051600160e51b62461bcd028152600401808060200182810382526021815260200180610cb96021913960400191505060405180910390fd5b6001600160a01b0316600090815260209190915260409020805460ff19169055565b61097a8282610718565b156109cf5760408051600160e51b62461bcd02815260206004820152601f60248201527f526f6c65733a206163636f756e7420616c72656164792068617320726f6c6500604482015290519081900360640190fd5b6001600160a01b0316600090815260209190915260409020805460ff19166001179055565b6001600160a01b038216610a3c57604051600160e51b62461bcd02815260040180806020018281038252602a815260200180610d1d602a913960400191505060405180910390fd5b8061041e5760408051600160e51b62461bcd02815260206004820152601960248201527f43726f776473616c653a20776569416d6f756e74206973203000000000000000604482015290519081900360640190fd5b604080516001600160a01b038416602482015260448082018490528251808303909101815260649091019091526020810180516001600160e01b0316600160e01b63a9059cbb02179052610ae6908490610aeb565b505050565b610afd826001600160a01b0316610cb2565b610b515760408051600160e51b62461bcd02815260206004820152601f60248201527f5361666545524332303a2063616c6c20746f206e6f6e2d636f6e747261637400604482015290519081900360640190fd5b60006060836001600160a01b0316836040518082805190602001908083835b60208310610b8f5780518252601f199092019160209182019101610b70565b6001836020036101000a0380198251168184511680821785525050505050509050019150506000604051808303816000865af19150503d8060008114610bf1576040519150601f19603f3d011682016040523d82523d6000602084013e610bf6565b606091505b509150915081610c505760408051600160e51b62461bcd02815260206004820181905260248201527f5361666545524332303a206c6f772d6c6576656c2063616c6c206661696c6564604482015290519081900360640190fd5b805115610cac57808060200190516020811015610c6c57600080fd5b5051610cac57604051600160e51b62461bcd02815260040180806020018281038252602a815260200180610d7e602a913960400191505060405180910390fd5b50505050565b3b15159056fe526f6c65733a206163636f756e7420646f6573206e6f74206861766520726f6c65536166654d6174683a206d756c7469706c69636174696f6e206f766572666c6f77526f6c65733a206163636f756e7420697320746865207a65726f206164647265737343726f776473616c653a2062656e656669636961727920697320746865207a65726f2061646472657373496e646976696475616c6c7943617070656443726f776473616c653a2062656e65666963696172792773206361702065786365656465645361666545524332303a204552433230206f7065726174696f6e20646964206e6f742073756363656564436170706572526f6c653a2063616c6c657220646f6573206e6f742068617665207468652043617070657220726f6c65a165627a7a7230582093096814be610550b21ec6eeb42b54762a7b8ec02636cfde32035b48d1d9cd0d002943726f776473616c653a20746f6b656e20697320746865207a65726f2061646472657373526f6c65733a206163636f756e7420697320746865207a65726f206164647265737343726f776473616c653a2077616c6c657420697320746865207a65726f2061646472657373",
  "source": "pragma solidity ^0.5.0;\nimport \"@openzeppelin/contracts/crowdsale/Crowdsale.sol\";\nimport \"@openzeppelin/contracts/crowdsale/validation/CappedCrowdsale.sol\";\nimport \"@openzeppelin/contracts/crowdsale/validation/IndividuallyCappedCrowdsale.sol\";\n\ncontract CrowdsaleContract is Crowdsale,CappedCrowdsale,IndividuallyCappedCrowdsale {\n    \n\n    mapping(address => uint256) public contributions;\t\n    constructor(uint256 rate, address payable wallet, IERC20 token,uint256 cap)\n        \n        Crowdsale(rate, wallet, token)\n        CappedCrowdsale(cap)\n        IndividuallyCappedCrowdsale()\n        public\n    {\n\n    }\n    \n    \n    \n    \n    \n    }\n    \n    \n    \n\n    \n    \n    \n\n\n",
  "sourcePath": "/home/muhammadobaid/ethereumfreelanceproject/contracts/CrowdsaleContract.sol",
  "compiler": {
    "name": "solc",
    "version": "0.5.8+commit.23d335f2.Emscripten.clang"
  },
  "schemaVersion": "3.0.11",
  "updatedAt": "2019-10-06T18:51:23.656Z",
  "devdoc": {
    "methods": {
      "buyTokens(address)": {
        "details": "low level token purchase ***DO NOT OVERRIDE*** This function has a non-reentrancy guard, so it shouldn't be called by another `nonReentrant` function.",
        "params": {
          "beneficiary": "Recipient of the token purchase"
        }
      },
      "cap()": {
        "return": "the cap of the crowdsale."
      },
      "capReached()": {
        "details": "Checks whether the cap has been reached.",
        "return": "Whether the cap was reached"
      },
      "getCap(address)": {
        "details": "Returns the cap of a specific beneficiary.",
        "params": {
          "beneficiary": "Address whose cap is to be checked"
        },
        "return": "Current cap for individual beneficiary"
      },
      "getContribution(address)": {
        "details": "Returns the amount contributed so far by a specific beneficiary.",
        "params": {
          "beneficiary": "Address of contributor"
        },
        "return": "Beneficiary contribution so far"
      },
      "rate()": {
        "return": "the number of token units a buyer gets per wei."
      },
      "setCap(address,uint256)": {
        "details": "Sets a specific beneficiary's maximum contribution.",
        "params": {
          "beneficiary": "Address to be capped",
          "cap": "Wei limit for individual contribution"
        }
      },
      "token()": {
        "return": "the token being sold."
      },
      "wallet()": {
        "return": "the address where funds are collected."
      },
      "weiRaised()": {
        "return": "the amount of wei raised."
      }
    }
  },
  "userdoc": {
    "methods": {}
  }
}