{
  "contractName": "Freelancetoken",
  "abi": [
    {
      "constant": true,
      "inputs": [],
      "name": "name",
      "outputs": [
        {
          "name": "",
          "type": "string"
        }
      ],
      "payable": false,
      "stateMutability": "view",
      "type": "function"
    },
    {
      "constant": false,
      "inputs": [
        {
          "name": "spender",
          "type": "address"
        },
        {
          "name": "value",
          "type": "uint256"
        }
      ],
      "name": "approve",
      "outputs": [
        {
          "name": "",
          "type": "bool"
        }
      ],
      "payable": false,
      "stateMutability": "nonpayable",
      "type": "function"
    },
    {
      "constant": true,
      "inputs": [],
      "name": "totalSupply",
      "outputs": [
        {
          "name": "",
          "type": "uint256"
        }
      ],
      "payable": false,
      "stateMutability": "view",
      "type": "function"
    },
    {
      "constant": false,
      "inputs": [
        {
          "name": "sender",
          "type": "address"
        },
        {
          "name": "recipient",
          "type": "address"
        },
        {
          "name": "amount",
          "type": "uint256"
        }
      ],
      "name": "transferFrom",
      "outputs": [
        {
          "name": "",
          "type": "bool"
        }
      ],
      "payable": false,
      "stateMutability": "nonpayable",
      "type": "function"
    },
    {
      "constant": true,
      "inputs": [],
      "name": "decimals",
      "outputs": [
        {
          "name": "",
          "type": "uint8"
        }
      ],
      "payable": false,
      "stateMutability": "view",
      "type": "function"
    },
    {
      "constant": false,
      "inputs": [
        {
          "name": "spender",
          "type": "address"
        },
        {
          "name": "addedValue",
          "type": "uint256"
        }
      ],
      "name": "increaseAllowance",
      "outputs": [
        {
          "name": "",
          "type": "bool"
        }
      ],
      "payable": false,
      "stateMutability": "nonpayable",
      "type": "function"
    },
    {
      "constant": true,
      "inputs": [
        {
          "name": "account",
          "type": "address"
        }
      ],
      "name": "balanceOf",
      "outputs": [
        {
          "name": "",
          "type": "uint256"
        }
      ],
      "payable": false,
      "stateMutability": "view",
      "type": "function"
    },
    {
      "constant": true,
      "inputs": [],
      "name": "symbol",
      "outputs": [
        {
          "name": "",
          "type": "string"
        }
      ],
      "payable": false,
      "stateMutability": "view",
      "type": "function"
    },
    {
      "constant": false,
      "inputs": [
        {
          "name": "spender",
          "type": "address"
        },
        {
          "name": "subtractedValue",
          "type": "uint256"
        }
      ],
      "name": "decreaseAllowance",
      "outputs": [
        {
          "name": "",
          "type": "bool"
        }
      ],
      "payable": false,
      "stateMutability": "nonpayable",
      "type": "function"
    },
    {
      "constant": false,
      "inputs": [
        {
          "name": "recipient",
          "type": "address"
        },
        {
          "name": "amount",
          "type": "uint256"
        }
      ],
      "name": "transfer",
      "outputs": [
        {
          "name": "",
          "type": "bool"
        }
      ],
      "payable": false,
      "stateMutability": "nonpayable",
      "type": "function"
    },
    {
      "constant": true,
      "inputs": [
        {
          "name": "owner",
          "type": "address"
        },
        {
          "name": "spender",
          "type": "address"
        }
      ],
      "name": "allowance",
      "outputs": [
        {
          "name": "",
          "type": "uint256"
        }
      ],
      "payable": false,
      "stateMutability": "view",
      "type": "function"
    },
    {
      "inputs": [
        {
          "name": "name",
          "type": "string"
        },
        {
          "name": "symbol",
          "type": "string"
        },
        {
          "name": "decimalss",
          "type": "uint8"
        }
      ],
      "payable": false,
      "stateMutability": "nonpayable",
      "type": "constructor"
    },
    {
      "anonymous": false,
      "inputs": [
        {
          "indexed": true,
          "name": "from",
          "type": "address"
        },
        {
          "indexed": true,
          "name": "to",
          "type": "address"
        },
        {
          "indexed": false,
          "name": "value",
          "type": "uint256"
        }
      ],
      "name": "Transfer",
      "type": "event"
    },
    {
      "anonymous": false,
      "inputs": [
        {
          "indexed": true,
          "name": "owner",
          "type": "address"
        },
        {
          "indexed": true,
          "name": "spender",
          "type": "address"
        },
        {
          "indexed": false,
          "name": "value",
          "type": "uint256"
        }
      ],
      "name": "Approval",
      "type": "event"
    },
    {
      "constant": false,
      "inputs": [
        {
          "name": "name",
          "type": "string"
        }
      ],
      "name": "changename",
      "outputs": [],
      "payable": false,
      "stateMutability": "nonpayable",
      "type": "function"
    },
    {
      "constant": false,
      "inputs": [
        {
          "name": "symbol",
          "type": "string"
        }
      ],
      "name": "changesymbol",
      "outputs": [],
      "payable": false,
      "stateMutability": "nonpayable",
      "type": "function"
    },
    {
      "constant": false,
      "inputs": [
        {
          "name": "addadmins",
          "type": "address[]"
        }
      ],
      "name": "addadmin",
      "outputs": [],
      "payable": false,
      "stateMutability": "nonpayable",
      "type": "function"
    },
    {
      "constant": true,
      "inputs": [],
      "name": "mytokens",
      "outputs": [
        {
          "name": "",
          "type": "uint256"
        }
      ],
      "payable": false,
      "stateMutability": "view",
      "type": "function"
    }
  ],
  "bytecode": "0x60806040523480156200001157600080fd5b506040516200117b3803806200117b833981018060405260608110156200003757600080fd5b8101908080516401000000008111156200005057600080fd5b820160208101848111156200006457600080fd5b81516401000000008111828201871017156200007f57600080fd5b505092919060200180516401000000008111156200009c57600080fd5b82016020810184811115620000b057600080fd5b8151640100000000811182820187101715620000cb57600080fd5b505060209182015185519194509250849184918491620000f19160039186019062000437565b5081516200010790600490602085019062000437565b506005805460ff191660ff92909216919091179055506200014b905033620001356200016f602090811b901c565b60ff16600a0a612710026200017960201b60201c565b620001663360066200029460201b62000aee1790919060201c565b505050620004d9565b60055460ff165b90565b6001600160a01b038216620001ef57604080517f08c379a000000000000000000000000000000000000000000000000000000000815260206004820152601f60248201527f45524332303a206d696e7420746f20746865207a65726f206164647265737300604482015290519081900360640190fd5b6200020b816002546200033860201b62000a8a1790919060201c565b6002556001600160a01b038216600090815260208181526040909120546200023e91839062000a8a62000338821b17901c565b6001600160a01b0383166000818152602081815260408083209490945583518581529351929391927fddf252ad1be2c89b69c2b068fc378daa952ba7f163c4a11628f55a4df523b3ef9281900390910190a35050565b620002a68282620003b460201b60201c565b156200031357604080517f08c379a000000000000000000000000000000000000000000000000000000000815260206004820152601f60248201527f526f6c65733a206163636f756e7420616c72656164792068617320726f6c6500604482015290519081900360640190fd5b6001600160a01b0316600090815260209190915260409020805460ff19166001179055565b600082820183811015620003ad57604080517f08c379a000000000000000000000000000000000000000000000000000000000815260206004820152601b60248201527f536166654d6174683a206164646974696f6e206f766572666c6f770000000000604482015290519081900360640190fd5b9392505050565b60006001600160a01b03821662000417576040517f08c379a0000000000000000000000000000000000000000000000000000000008152600401808060200182810382526022815260200180620011596022913960400191505060405180910390fd5b506001600160a01b03166000908152602091909152604090205460ff1690565b828054600181600116156101000203166002900490600052602060002090601f016020900481019282601f106200047a57805160ff1916838001178555620004aa565b82800160010185558215620004aa579182015b82811115620004aa5782518255916020019190600101906200048d565b50620004b8929150620004bc565b5090565b6200017691905b80821115620004b85760008155600101620004c3565b610c7080620004e96000396000f3fe608060405234801561001057600080fd5b50600436106100f55760003560e01c80633950935111610097578063a457c2d711610066578063a457c2d71461032f578063a9059cbb1461035b578063d02b4c3714610387578063dd62ed3e1461042a576100f5565b806339509351146102d557806342b90959146101b757806370a082311461030157806395d89b4114610327576100f5565b806318160ddd116100d357806318160ddd1461025f57806323b872dd146102795780632f75abcd146102af578063313ce567146102b7576100f5565b806306fdde03146100fa578063095ea7b3146101775780631752a500146101b7575b600080fd5b610102610458565b6040805160208082528351818301528351919283929083019185019080838360005b8381101561013c578181015183820152602001610124565b50505050905090810190601f1680156101695780820380516001836020036101000a031916815260200191505b509250505060405180910390f35b6101a36004803603604081101561018d57600080fd5b506001600160a01b0381351690602001356104ee565b604080519115158252519081900360200190f35b61025d600480360360208110156101cd57600080fd5b8101906020810181356401000000008111156101e857600080fd5b8201836020820111156101fa57600080fd5b8035906020019184600183028401116401000000008311171561021c57600080fd5b91908080601f016020809104026020016040519081016040528093929190818152602001838380828437600092019190915250929550610504945050505050565b005b610267610556565b60408051918252519081900360200190f35b6101a36004803603606081101561028f57600080fd5b506001600160a01b0381358116916020810135909116906040013561055c565b6102676105b3565b6102bf6105c3565b6040805160ff9092168252519081900360200190f35b6101a3600480360360408110156102eb57600080fd5b506001600160a01b0381351690602001356105cc565b6102676004803603602081101561031757600080fd5b50356001600160a01b0316610608565b610102610623565b6101a36004803603604081101561034557600080fd5b506001600160a01b038135169060200135610684565b6101a36004803603604081101561037157600080fd5b506001600160a01b0381351690602001356106c0565b61025d6004803603602081101561039d57600080fd5b8101906020810181356401000000008111156103b857600080fd5b8201836020820111156103ca57600080fd5b803590602001918460208302840111640100000000831117156103ec57600080fd5b9190808060200260200160405190810160405280939291908181526020018383602002808284376000920191909152509295506106cd945050505050565b6102676004803603604081101561044057600080fd5b506001600160a01b038135811691602001351661075b565b60038054604080516020601f60026000196101006001881615020190951694909404938401819004810282018101909252828152606093909290918301828280156104e45780601f106104b9576101008083540402835291602001916104e4565b820191906000526020600020905b8154815290600101906020018083116104c757829003601f168201915b5050505050905090565b60006104fb338484610786565b50600192915050565b61051560063363ffffffff61087816565b61055357604051600160e51b62461bcd028152600401808060200182810382526022815260200180610bda6022913960400191505060405180910390fd5b50565b60025490565b60006105698484846108e2565b6001600160a01b0384166000908152600160209081526040808320338085529252909120546105a99186916105a4908663ffffffff610a2a16565b610786565b5060019392505050565b60006105be33610608565b905090565b60055460ff1690565b3360008181526001602090815260408083206001600160a01b038716845290915281205490916104fb9185906105a4908663ffffffff610a8a16565b6001600160a01b031660009081526020819052604090205490565b60048054604080516020601f60026000196101006001881615020190951694909404938401819004810282018101909252828152606093909290918301828280156104e45780601f106104b9576101008083540402835291602001916104e4565b3360008181526001602090815260408083206001600160a01b038716845290915281205490916104fb9185906105a4908663ffffffff610a2a16565b60006104fb3384846108e2565b6106de60063363ffffffff61087816565b61071c57604051600160e51b62461bcd028152600401808060200182810382526022815260200180610bda6022913960400191505060405180910390fd5b60005b81518110156107575761074f82828151811061073757fe5b60200260200101516006610aee90919063ffffffff16565b60010161071f565b5050565b6001600160a01b03918216600090815260016020908152604080832093909416825291909152205490565b6001600160a01b0383166107ce57604051600160e51b62461bcd028152600401808060200182810382526024815260200180610c216024913960400191505060405180910390fd5b6001600160a01b03821661081657604051600160e51b62461bcd028152600401808060200182810382526022815260200180610b966022913960400191505060405180910390fd5b6001600160a01b03808416600081815260016020908152604080832094871680845294825291829020859055815185815291517f8c5be1e5ebec7d5bd14f71427d1e84f3dd0314c0f7b2291e5b200ac8c7c3b9259281900390910190a3505050565b60006001600160a01b0382166108c257604051600160e51b62461bcd028152600401808060200182810382526022815260200180610bb86022913960400191505060405180910390fd5b506001600160a01b03166000908152602091909152604090205460ff1690565b6001600160a01b03831661092a57604051600160e51b62461bcd028152600401808060200182810382526025815260200180610bfc6025913960400191505060405180910390fd5b6001600160a01b03821661097257604051600160e51b62461bcd028152600401808060200182810382526023815260200180610b736023913960400191505060405180910390fd5b6001600160a01b03831660009081526020819052604090205461099b908263ffffffff610a2a16565b6001600160a01b0380851660009081526020819052604080822093909355908416815220546109d0908263ffffffff610a8a16565b6001600160a01b038084166000818152602081815260409182902094909455805185815290519193928716927fddf252ad1be2c89b69c2b068fc378daa952ba7f163c4a11628f55a4df523b3ef92918290030190a3505050565b600082821115610a845760408051600160e51b62461bcd02815260206004820152601e60248201527f536166654d6174683a207375627472616374696f6e206f766572666c6f770000604482015290519081900360640190fd5b50900390565b600082820183811015610ae75760408051600160e51b62461bcd02815260206004820152601b60248201527f536166654d6174683a206164646974696f6e206f766572666c6f770000000000604482015290519081900360640190fd5b9392505050565b610af88282610878565b15610b4d5760408051600160e51b62461bcd02815260206004820152601f60248201527f526f6c65733a206163636f756e7420616c72656164792068617320726f6c6500604482015290519081900360640190fd5b6001600160a01b0316600090815260209190915260409020805460ff1916600117905556fe45524332303a207472616e7366657220746f20746865207a65726f206164647265737345524332303a20617070726f766520746f20746865207a65726f2061646472657373526f6c65733a206163636f756e7420697320746865207a65726f2061646472657373596f7520646f6573206e6f7420686176652061646d696e2070726976696c6967657345524332303a207472616e736665722066726f6d20746865207a65726f206164647265737345524332303a20617070726f76652066726f6d20746865207a65726f2061646472657373a165627a7a72305820dc695bfd16aa8e55054058c85af9730033229aa9313537ecb13655e0cfa5e6000029526f6c65733a206163636f756e7420697320746865207a65726f2061646472657373",
  "source": "pragma solidity ^0.5.0;\nimport \"@openzeppelin/contracts/token/ERC20/ERC20.sol\";\nimport \"@openzeppelin/contracts/token/ERC20/ERC20Detailed.sol\";\nimport \"@openzeppelin/contracts/access/Roles.sol\";\n\ncontract Freelancetoken is ERC20,ERC20Detailed {\n\n\tusing Roles for Roles.Role;\n\n\tRoles.Role private admins;\n\n\t\n\n\tconstructor(string memory name, string memory symbol, uint8 decimalss) ERC20Detailed(name,symbol,decimalss) public {\n     \n        \n\t_mint(msg.sender, 10000 * (10 ** uint256(decimals())));\n      \n      \n            admins.add(msg.sender);\n        \n\n        \n      \n    }\n\n\n\n    modifier onlyadmin() {\n\n    \trequire(admins.has(msg.sender), \"You does not have admin priviliges\");\n    \t_;\n    \n    }\n\n\n\n    function changename(string memory name) public onlyadmin{\n    \t    \tname = name;\n\n    }\n\n\n    function changesymbol(string memory symbol) public onlyadmin{\n    \t symbol = symbol;\t\n    }\n\n\n\n\n     function addadmin(address[] memory addadmins) public onlyadmin{\n                 for (uint256 i=0 ;i< addadmins.length;++i){\n                     admins.add(addadmins[i]);\n                 }\n                 \n\n     }\n\n\n\n     function mytokens()public view returns (uint256) {\n            return balanceOf(msg.sender);\n\n     }\n\n\n\n\n   \n\n }\n\n\n\n",
  "sourcePath": "/home/muhammadobaid/ethereumfreelanceproject/contracts/Freelancetoken.sol",
  "compiler": {
    "name": "solc",
    "version": "0.5.8+commit.23d335f2.Emscripten.clang"
  },
  "schemaVersion": "3.0.11",
  "updatedAt": "2019-10-06T18:51:23.672Z",
  "devdoc": {
    "methods": {
      "allowance(address,address)": {
        "details": "See `IERC20.allowance`."
      },
      "approve(address,uint256)": {
        "details": "See `IERC20.approve`.     * Requirements:     * - `spender` cannot be the zero address."
      },
      "balanceOf(address)": {
        "details": "See `IERC20.balanceOf`."
      },
      "decimals()": {
        "details": "Returns the number of decimals used to get its user representation. For example, if `decimals` equals `2`, a balance of `505` tokens should be displayed to a user as `5,05` (`505 / 10 ** 2`).     * Tokens usually opt for a value of 18, imitating the relationship between Ether and Wei.     * > Note that this information is only used for _display_ purposes: it in no way affects any of the arithmetic of the contract, including `IERC20.balanceOf` and `IERC20.transfer`."
      },
      "decreaseAllowance(address,uint256)": {
        "details": "Atomically decreases the allowance granted to `spender` by the caller.     * This is an alternative to `approve` that can be used as a mitigation for problems described in `IERC20.approve`.     * Emits an `Approval` event indicating the updated allowance.     * Requirements:     * - `spender` cannot be the zero address. - `spender` must have allowance for the caller of at least `subtractedValue`."
      },
      "increaseAllowance(address,uint256)": {
        "details": "Atomically increases the allowance granted to `spender` by the caller.     * This is an alternative to `approve` that can be used as a mitigation for problems described in `IERC20.approve`.     * Emits an `Approval` event indicating the updated allowance.     * Requirements:     * - `spender` cannot be the zero address."
      },
      "name()": {
        "details": "Returns the name of the token."
      },
      "symbol()": {
        "details": "Returns the symbol of the token, usually a shorter version of the name."
      },
      "totalSupply()": {
        "details": "See `IERC20.totalSupply`."
      },
      "transfer(address,uint256)": {
        "details": "See `IERC20.transfer`.     * Requirements:     * - `recipient` cannot be the zero address. - the caller must have a balance of at least `amount`."
      },
      "transferFrom(address,address,uint256)": {
        "details": "See `IERC20.transferFrom`.     * Emits an `Approval` event indicating the updated allowance. This is not required by the EIP. See the note at the beginning of `ERC20`;     * Requirements: - `sender` and `recipient` cannot be the zero address. - `sender` must have a balance of at least `value`. - the caller must have allowance for `sender`'s tokens of at least `amount`."
      }
    }
  },
  "userdoc": {
    "methods": {}
  }
}